{
  "contractName": "SBT",
  "abi": [
    {
      "inputs": [
        {
          "internalType": "string",
          "name": "name_",
          "type": "string"
        },
        {
          "internalType": "string",
          "name": "symbol_",
          "type": "string"
        },
        {
          "internalType": "string",
          "name": "baseURI_",
          "type": "string"
        }
      ],
      "stateMutability": "nonpayable",
      "type": "constructor"
    },
    {
      "anonymous": false,
      "inputs": [
        {
          "indexed": true,
          "internalType": "address",
          "name": "owner",
          "type": "address"
        },
        {
          "indexed": true,
          "internalType": "address",
          "name": "approved",
          "type": "address"
        },
        {
          "indexed": true,
          "internalType": "uint256",
          "name": "tokenId",
          "type": "uint256"
        }
      ],
      "name": "Approval",
      "type": "event"
    },
    {
      "anonymous": false,
      "inputs": [
        {
          "indexed": true,
          "internalType": "address",
          "name": "owner",
          "type": "address"
        },
        {
          "indexed": true,
          "internalType": "address",
          "name": "operator",
          "type": "address"
        },
        {
          "indexed": false,
          "internalType": "bool",
          "name": "approved",
          "type": "bool"
        }
      ],
      "name": "ApprovalForAll",
      "type": "event"
    },
    {
      "anonymous": false,
      "inputs": [
        {
          "indexed": false,
          "internalType": "uint256",
          "name": "tokenId",
          "type": "uint256"
        }
      ],
      "name": "Locked",
      "type": "event"
    },
    {
      "anonymous": false,
      "inputs": [
        {
          "indexed": true,
          "internalType": "address",
          "name": "previousOwner",
          "type": "address"
        },
        {
          "indexed": true,
          "internalType": "address",
          "name": "newOwner",
          "type": "address"
        }
      ],
      "name": "OwnershipTransferred",
      "type": "event"
    },
    {
      "anonymous": false,
      "inputs": [
        {
          "indexed": true,
          "internalType": "address",
          "name": "from",
          "type": "address"
        },
        {
          "indexed": true,
          "internalType": "address",
          "name": "to",
          "type": "address"
        },
        {
          "indexed": true,
          "internalType": "uint256",
          "name": "tokenId",
          "type": "uint256"
        }
      ],
      "name": "Transfer",
      "type": "event"
    },
    {
      "anonymous": false,
      "inputs": [
        {
          "indexed": false,
          "internalType": "uint256",
          "name": "tokenId",
          "type": "uint256"
        }
      ],
      "name": "Unlocked",
      "type": "event"
    },
    {
      "inputs": [
        {
          "internalType": "address",
          "name": "to",
          "type": "address"
        },
        {
          "internalType": "uint256",
          "name": "tokenId",
          "type": "uint256"
        }
      ],
      "name": "approve",
      "outputs": [],
      "stateMutability": "nonpayable",
      "type": "function"
    },
    {
      "inputs": [
        {
          "internalType": "address",
          "name": "owner",
          "type": "address"
        }
      ],
      "name": "balanceOf",
      "outputs": [
        {
          "internalType": "uint256",
          "name": "",
          "type": "uint256"
        }
      ],
      "stateMutability": "view",
      "type": "function",
      "constant": true
    },
    {
      "inputs": [
        {
          "internalType": "uint256",
          "name": "tokenId",
          "type": "uint256"
        }
      ],
      "name": "getApproved",
      "outputs": [
        {
          "internalType": "address",
          "name": "",
          "type": "address"
        }
      ],
      "stateMutability": "view",
      "type": "function",
      "constant": true
    },
    {
      "inputs": [
        {
          "internalType": "address",
          "name": "owner",
          "type": "address"
        },
        {
          "internalType": "address",
          "name": "operator",
          "type": "address"
        }
      ],
      "name": "isApprovedForAll",
      "outputs": [
        {
          "internalType": "bool",
          "name": "",
          "type": "bool"
        }
      ],
      "stateMutability": "view",
      "type": "function",
      "constant": true
    },
    {
      "inputs": [],
      "name": "name",
      "outputs": [
        {
          "internalType": "string",
          "name": "",
          "type": "string"
        }
      ],
      "stateMutability": "view",
      "type": "function",
      "constant": true
    },
    {
      "inputs": [],
      "name": "owner",
      "outputs": [
        {
          "internalType": "address",
          "name": "",
          "type": "address"
        }
      ],
      "stateMutability": "view",
      "type": "function",
      "constant": true
    },
    {
      "inputs": [
        {
          "internalType": "uint256",
          "name": "tokenId",
          "type": "uint256"
        }
      ],
      "name": "ownerOf",
      "outputs": [
        {
          "internalType": "address",
          "name": "",
          "type": "address"
        }
      ],
      "stateMutability": "view",
      "type": "function",
      "constant": true
    },
    {
      "inputs": [],
      "name": "renounceOwnership",
      "outputs": [],
      "stateMutability": "nonpayable",
      "type": "function"
    },
    {
      "inputs": [
        {
          "internalType": "address",
          "name": "operator",
          "type": "address"
        },
        {
          "internalType": "bool",
          "name": "approved",
          "type": "bool"
        }
      ],
      "name": "setApprovalForAll",
      "outputs": [],
      "stateMutability": "nonpayable",
      "type": "function"
    },
    {
      "inputs": [],
      "name": "symbol",
      "outputs": [
        {
          "internalType": "string",
          "name": "",
          "type": "string"
        }
      ],
      "stateMutability": "view",
      "type": "function",
      "constant": true
    },
    {
      "inputs": [
        {
          "internalType": "uint256",
          "name": "index",
          "type": "uint256"
        }
      ],
      "name": "tokenByIndex",
      "outputs": [
        {
          "internalType": "uint256",
          "name": "",
          "type": "uint256"
        }
      ],
      "stateMutability": "view",
      "type": "function",
      "constant": true
    },
    {
      "inputs": [
        {
          "internalType": "address",
          "name": "owner",
          "type": "address"
        },
        {
          "internalType": "uint256",
          "name": "index",
          "type": "uint256"
        }
      ],
      "name": "tokenOfOwnerByIndex",
      "outputs": [
        {
          "internalType": "uint256",
          "name": "",
          "type": "uint256"
        }
      ],
      "stateMutability": "view",
      "type": "function",
      "constant": true
    },
    {
      "inputs": [
        {
          "internalType": "uint256",
          "name": "tokenId",
          "type": "uint256"
        }
      ],
      "name": "tokenURI",
      "outputs": [
        {
          "internalType": "string",
          "name": "",
          "type": "string"
        }
      ],
      "stateMutability": "view",
      "type": "function",
      "constant": true
    },
    {
      "inputs": [],
      "name": "totalSupply",
      "outputs": [
        {
          "internalType": "uint256",
          "name": "",
          "type": "uint256"
        }
      ],
      "stateMutability": "view",
      "type": "function",
      "constant": true
    },
    {
      "inputs": [
        {
          "internalType": "address",
          "name": "newOwner",
          "type": "address"
        }
      ],
      "name": "transferOwnership",
      "outputs": [],
      "stateMutability": "nonpayable",
      "type": "function"
    },
    {
      "inputs": [
        {
          "internalType": "uint256",
          "name": "tokenId",
          "type": "uint256"
        }
      ],
      "name": "locked",
      "outputs": [
        {
          "internalType": "bool",
          "name": "",
          "type": "bool"
        }
      ],
      "stateMutability": "view",
      "type": "function",
      "constant": true
    },
    {
      "inputs": [
        {
          "internalType": "address",
          "name": "to",
          "type": "address"
        },
        {
          "internalType": "uint256",
          "name": "tokenId",
          "type": "uint256"
        }
      ],
      "name": "safeMint",
      "outputs": [],
      "stateMutability": "nonpayable",
      "type": "function"
    },
    {
      "inputs": [
        {
          "internalType": "uint256",
          "name": "tokenId",
          "type": "uint256"
        }
      ],
      "name": "burn",
      "outputs": [],
      "stateMutability": "nonpayable",
      "type": "function"
    },
    {
      "inputs": [
        {
          "internalType": "address",
          "name": "from",
          "type": "address"
        },
        {
          "internalType": "address",
          "name": "to",
          "type": "address"
        },
        {
          "internalType": "uint256",
          "name": "tokenId",
          "type": "uint256"
        }
      ],
      "name": "safeTransferFrom",
      "outputs": [],
      "stateMutability": "nonpayable",
      "type": "function"
    },
    {
      "inputs": [
        {
          "internalType": "address",
          "name": "from",
          "type": "address"
        },
        {
          "internalType": "address",
          "name": "to",
          "type": "address"
        },
        {
          "internalType": "uint256",
          "name": "tokenId",
          "type": "uint256"
        },
        {
          "internalType": "bytes",
          "name": "data",
          "type": "bytes"
        }
      ],
      "name": "safeTransferFrom",
      "outputs": [],
      "stateMutability": "nonpayable",
      "type": "function"
    },
    {
      "inputs": [
        {
          "internalType": "address",
          "name": "from",
          "type": "address"
        },
        {
          "internalType": "address",
          "name": "to",
          "type": "address"
        },
        {
          "internalType": "uint256",
          "name": "tokenId",
          "type": "uint256"
        }
      ],
      "name": "transferFrom",
      "outputs": [],
      "stateMutability": "nonpayable",
      "type": "function"
    },
    {
      "inputs": [
        {
          "internalType": "bytes4",
          "name": "_interfaceId",
          "type": "bytes4"
        }
      ],
      "name": "supportsInterface",
      "outputs": [
        {
          "internalType": "bool",
          "name": "",
          "type": "bool"
        }
      ],
      "stateMutability": "view",
      "type": "function",
      "constant": true
    }
  ],
  "bytecode": "0x60806040523480156200001157600080fd5b5060405162003cf138038062003cf18339818101604052810190620000379190620002fb565b828281600090816200004a9190620005ff565b5080600190816200005c9190620005ff565b5050506200007f620000736200009a60201b60201c565b620000a260201b60201c565b80600b9081620000909190620005ff565b50505050620006e6565b600033905090565b6000600a60009054906101000a900473ffffffffffffffffffffffffffffffffffffffff16905081600a60006101000a81548173ffffffffffffffffffffffffffffffffffffffff021916908373ffffffffffffffffffffffffffffffffffffffff1602179055508173ffffffffffffffffffffffffffffffffffffffff168173ffffffffffffffffffffffffffffffffffffffff167f8be0079c531659141344cd1fd0a4f28419497f9722a3daafe3b4186f6b6457e060405160405180910390a35050565b6000604051905090565b600080fd5b600080fd5b600080fd5b600080fd5b6000601f19601f8301169050919050565b7f4e487b7100000000000000000000000000000000000000000000000000000000600052604160045260246000fd5b620001d18262000186565b810181811067ffffffffffffffff82111715620001f357620001f262000197565b5b80604052505050565b60006200020862000168565b9050620002168282620001c6565b919050565b600067ffffffffffffffff82111562000239576200023862000197565b5b620002448262000186565b9050602081019050919050565b60005b838110156200027157808201518184015260208101905062000254565b60008484015250505050565b6000620002946200028e846200021b565b620001fc565b905082815260208101848484011115620002b357620002b262000181565b5b620002c084828562000251565b509392505050565b600082601f830112620002e057620002df6200017c565b5b8151620002f28482602086016200027d565b91505092915050565b60008060006060848603121562000317576200031662000172565b5b600084015167ffffffffffffffff81111562000338576200033762000177565b5b6200034686828701620002c8565b935050602084015167ffffffffffffffff8111156200036a576200036962000177565b5b6200037886828701620002c8565b925050604084015167ffffffffffffffff8111156200039c576200039b62000177565b5b620003aa86828701620002c8565b9150509250925092565b600081519050919050565b7f4e487b7100000000000000000000000000000000000000000000000000000000600052602260045260246000fd5b600060028204905060018216806200040757607f821691505b6020821081036200041d576200041c620003bf565b5b50919050565b60008190508160005260206000209050919050565b60006020601f8301049050919050565b600082821b905092915050565b600060088302620004877fffffffffffffffffffffffffffffffffffffffffffffffffffffffffffffffff8262000448565b62000493868362000448565b95508019841693508086168417925050509392505050565b6000819050919050565b6000819050919050565b6000620004e0620004da620004d484620004ab565b620004b5565b620004ab565b9050919050565b6000819050919050565b620004fc83620004bf565b620005146200050b82620004e7565b84845462000455565b825550505050565b600090565b6200052b6200051c565b62000538818484620004f1565b505050565b5b8181101562000560576200055460008262000521565b6001810190506200053e565b5050565b601f821115620005af57620005798162000423565b620005848462000438565b8101602085101562000594578190505b620005ac620005a38562000438565b8301826200053d565b50505b505050565b600082821c905092915050565b6000620005d460001984600802620005b4565b1980831691505092915050565b6000620005ef8383620005c1565b9150826002028217905092915050565b6200060a82620003b4565b67ffffffffffffffff81111562000626576200062562000197565b5b620006328254620003ee565b6200063f82828562000564565b600060209050601f83116001811462000677576000841562000662578287015190505b6200066e8582620005e1565b865550620006de565b601f198416620006878662000423565b60005b82811015620006b1578489015182556001820191506020850194506020810190506200068a565b86831015620006d15784890151620006cd601f891682620005c1565b8355505b6001600288020188555050505b505050505050565b6135fb80620006f66000396000f3fe608060405234801561001057600080fd5b50600436106101425760003560e01c806370a08231116100b8578063a22cb4651161007c578063a22cb46514610375578063b45a3c0e14610391578063b88d4fde146103c1578063c87b56dd146103dd578063e985e9c51461040d578063f2fde38b1461043d57610142565b806370a08231146102e3578063715018a6146103135780638da5cb5b1461031d57806395d89b411461033b578063a14481941461035957610142565b806323b872dd1161010a57806323b872dd146101ff5780632f745c591461021b57806342842e0e1461024b57806342966c68146102675780634f6ccce7146102835780636352211e146102b357610142565b806301ffc9a71461014757806306fdde0314610177578063081812fc14610195578063095ea7b3146101c557806318160ddd146101e1575b600080fd5b610161600480360381019061015c91906123f2565b610459565b60405161016e919061243a565b60405180910390f35b61017f6104d3565b60405161018c91906124e5565b60405180910390f35b6101af60048036038101906101aa919061253d565b610565565b6040516101bc91906125ab565b60405180910390f35b6101df60048036038101906101da91906125f2565b6105ab565b005b6101e96106c2565b6040516101f69190612641565b60405180910390f35b6102196004803603810190610214919061265c565b6106cf565b005b610235600480360381019061023091906125f2565b61070c565b6040516102429190612641565b60405180910390f35b6102656004803603810190610260919061265c565b6107b1565b005b610281600480360381019061027c919061253d565b6107ee565b005b61029d6004803603810190610298919061253d565b610870565b6040516102aa9190612641565b60405180910390f35b6102cd60048036038101906102c8919061253d565b6108e1565b6040516102da91906125ab565b60405180910390f35b6102fd60048036038101906102f891906126af565b610992565b60405161030a9190612641565b60405180910390f35b61031b610a49565b005b610325610a5d565b60405161033291906125ab565b60405180910390f35b610343610a87565b60405161035091906124e5565b60405180910390f35b610373600480360381019061036e91906125f2565b610b19565b005b61038f600480360381019061038a9190612708565b610c44565b005b6103ab60048036038101906103a6919061253d565b610c5a565b6040516103b8919061243a565b60405180910390f35b6103db60048036038101906103d6919061287d565b610cc4565b005b6103f760048036038101906103f2919061253d565b610d03565b60405161040491906124e5565b60405180910390f35b61042760048036038101906104229190612900565b610d6b565b604051610434919061243a565b60405180910390f35b610457600480360381019061045291906126af565b610dff565b005b60007fb45a3c0e000000000000000000000000000000000000000000000000000000007bffffffffffffffffffffffffffffffffffffffffffffffffffffffff1916827bffffffffffffffffffffffffffffffffffffffffffffffffffffffff191614806104cc57506104cb82610e82565b5b9050919050565b6060600080546104e29061296f565b80601f016020809104026020016040519081016040528092919081815260200182805461050e9061296f565b801561055b5780601f106105305761010080835404028352916020019161055b565b820191906000526020600020905b81548152906001019060200180831161053e57829003601f168201915b5050505050905090565b600061057082610efc565b6004600083815260200190815260200160002060009054906101000a900473ffffffffffffffffffffffffffffffffffffffff169050919050565b60006105b6826108e1565b90508073ffffffffffffffffffffffffffffffffffffffff168373ffffffffffffffffffffffffffffffffffffffff1603610626576040517f08c379a000000000000000000000000000000000000000000000000000000000815260040161061d90612a12565b60405180910390fd5b8073ffffffffffffffffffffffffffffffffffffffff16610645610f47565b73ffffffffffffffffffffffffffffffffffffffff16148061067457506106738161066e610f47565b610d6b565b5b6106b3576040517f08c379a00000000000000000000000000000000000000000000000000000000081526004016106aa90612aa4565b60405180910390fd5b6106bd8383610f4f565b505050565b6000600880549050905090565b80600c600082815260200190815260200160002060009054906101000a900460ff16156106fb57600080fd5b610706848484611008565b50505050565b600061071783610992565b8210610758576040517f08c379a000000000000000000000000000000000000000000000000000000000815260040161074f90612b36565b60405180910390fd5b600660008473ffffffffffffffffffffffffffffffffffffffff1673ffffffffffffffffffffffffffffffffffffffff168152602001908152602001600020600083815260200190815260200160002054905092915050565b80600c600082815260200190815260200160002060009054906101000a900460ff16156107dd57600080fd5b6107e8848484611008565b50505050565b6107f7816108e1565b73ffffffffffffffffffffffffffffffffffffffff163373ffffffffffffffffffffffffffffffffffffffff1614610864576040517f08c379a000000000000000000000000000000000000000000000000000000000815260040161085b90612ba2565b60405180910390fd5b61086d81611028565b50565b600061087a6106c2565b82106108bb576040517f08c379a00000000000000000000000000000000000000000000000000000000081526004016108b290612c34565b60405180910390fd5b600882815481106108cf576108ce612c54565b5b90600052602060002001549050919050565b6000806002600084815260200190815260200160002060009054906101000a900473ffffffffffffffffffffffffffffffffffffffff169050600073ffffffffffffffffffffffffffffffffffffffff168173ffffffffffffffffffffffffffffffffffffffff1603610989576040517f08c379a000000000000000000000000000000000000000000000000000000000815260040161098090612ccf565b60405180910390fd5b80915050919050565b60008073ffffffffffffffffffffffffffffffffffffffff168273ffffffffffffffffffffffffffffffffffffffff1603610a02576040517f08c379a00000000000000000000000000000000000000000000000000000000081526004016109f990612d61565b60405180910390fd5b600360008373ffffffffffffffffffffffffffffffffffffffff1673ffffffffffffffffffffffffffffffffffffffff168152602001908152602001600020549050919050565b610a51611145565b610a5b60006111c3565b565b6000600a60009054906101000a900473ffffffffffffffffffffffffffffffffffffffff16905090565b606060018054610a969061296f565b80601f0160208091040260200160405190810160405280929190818152602001828054610ac29061296f565b8015610b0f5780601f10610ae457610100808354040283529160200191610b0f565b820191906000526020600020905b815481529060010190602001808311610af257829003601f168201915b5050505050905090565b610b21611145565b6000610b2c83610992565b14610b6c576040517f08c379a0000000000000000000000000000000000000000000000000000000008152600401610b6390612dcd565b60405180910390fd5b60011515600c600083815260200190815260200160002060009054906101000a900460ff16151503610bd3576040517f08c379a0000000000000000000000000000000000000000000000000000000008152600401610bca90612e39565b60405180910390fd5b6001600c600083815260200190815260200160002060006101000a81548160ff0219169083151502179055507f032bc66be43dbccb7487781d168eb7bda224628a3b2c3388bdf69b532a3a161181604051610c2e9190612641565b60405180910390a1610c408282611289565b5050565b610c56610c4f610f47565b83836112a7565b5050565b60008073ffffffffffffffffffffffffffffffffffffffff16610c7c836108e1565b73ffffffffffffffffffffffffffffffffffffffff1603610c9c57600080fd5b600c600083815260200190815260200160002060009054906101000a900460ff169050919050565b81600c600082815260200190815260200160002060009054906101000a900460ff1615610cf057600080fd5b610cfc85858585611413565b5050505050565b6060610d0e82610efc565b6000610d18611475565b90506000815111610d385760405180602001604052806000815250610d63565b80610d4284611507565b604051602001610d53929190612e95565b6040516020818303038152906040525b915050919050565b6000600560008473ffffffffffffffffffffffffffffffffffffffff1673ffffffffffffffffffffffffffffffffffffffff16815260200190815260200160002060008373ffffffffffffffffffffffffffffffffffffffff1673ffffffffffffffffffffffffffffffffffffffff16815260200190815260200160002060009054906101000a900460ff16905092915050565b610e07611145565b600073ffffffffffffffffffffffffffffffffffffffff168173ffffffffffffffffffffffffffffffffffffffff1603610e76576040517f08c379a0000000000000000000000000000000000000000000000000000000008152600401610e6d90612f2b565b60405180910390fd5b610e7f816111c3565b50565b60007f780e9d63000000000000000000000000000000000000000000000000000000007bffffffffffffffffffffffffffffffffffffffffffffffffffffffff1916827bffffffffffffffffffffffffffffffffffffffffffffffffffffffff19161480610ef55750610ef482611667565b5b9050919050565b610f0581611749565b610f44576040517f08c379a0000000000000000000000000000000000000000000000000000000008152600401610f3b90612ccf565b60405180910390fd5b50565b600033905090565b816004600083815260200190815260200160002060006101000a81548173ffffffffffffffffffffffffffffffffffffffff021916908373ffffffffffffffffffffffffffffffffffffffff160217905550808273ffffffffffffffffffffffffffffffffffffffff16610fc2836108e1565b73ffffffffffffffffffffffffffffffffffffffff167f8c5be1e5ebec7d5bd14f71427d1e84f3dd0314c0f7b2291e5b200ac8c7c3b92560405160405180910390a45050565b61102383838360405180602001604052806000815250610cc4565b505050565b6000611033826108e1565b9050611041816000846117b5565b61104c600083610f4f565b6001600360008373ffffffffffffffffffffffffffffffffffffffff1673ffffffffffffffffffffffffffffffffffffffff168152602001908152602001600020600082825461109c9190612f7a565b925050819055506002600083815260200190815260200160002060006101000a81549073ffffffffffffffffffffffffffffffffffffffff021916905581600073ffffffffffffffffffffffffffffffffffffffff168273ffffffffffffffffffffffffffffffffffffffff167fddf252ad1be2c89b69c2b068fc378daa952ba7f163c4a11628f55a4df523b3ef60405160405180910390a4611141816000846117c5565b5050565b61114d610f47565b73ffffffffffffffffffffffffffffffffffffffff1661116b610a5d565b73ffffffffffffffffffffffffffffffffffffffff16146111c1576040517f08c379a00000000000000000000000000000000000000000000000000000000081526004016111b890612ffa565b60405180910390fd5b565b6000600a60009054906101000a900473ffffffffffffffffffffffffffffffffffffffff16905081600a60006101000a81548173ffffffffffffffffffffffffffffffffffffffff021916908373ffffffffffffffffffffffffffffffffffffffff1602179055508173ffffffffffffffffffffffffffffffffffffffff168173ffffffffffffffffffffffffffffffffffffffff167f8be0079c531659141344cd1fd0a4f28419497f9722a3daafe3b4186f6b6457e060405160405180910390a35050565b6112a38282604051806020016040528060008152506117ca565b5050565b8173ffffffffffffffffffffffffffffffffffffffff168373ffffffffffffffffffffffffffffffffffffffff1603611315576040517f08c379a000000000000000000000000000000000000000000000000000000000815260040161130c90613066565b60405180910390fd5b80600560008573ffffffffffffffffffffffffffffffffffffffff1673ffffffffffffffffffffffffffffffffffffffff16815260200190815260200160002060008473ffffffffffffffffffffffffffffffffffffffff1673ffffffffffffffffffffffffffffffffffffffff16815260200190815260200160002060006101000a81548160ff0219169083151502179055508173ffffffffffffffffffffffffffffffffffffffff168373ffffffffffffffffffffffffffffffffffffffff167f17307eab39ab6107e8899845ad3d59bd9653f200f220920489ca2b5937696c3183604051611406919061243a565b60405180910390a3505050565b61142461141e610f47565b83611825565b611463576040517f08c379a000000000000000000000000000000000000000000000000000000000815260040161145a906130f8565b60405180910390fd5b61146f848484846118ba565b50505050565b6060600b80546114849061296f565b80601f01602080910402602001604051908101604052809291908181526020018280546114b09061296f565b80156114fd5780601f106114d2576101008083540402835291602001916114fd565b820191906000526020600020905b8154815290600101906020018083116114e057829003601f168201915b5050505050905090565b60606000820361154e576040518060400160405280600181526020017f30000000000000000000000000000000000000000000000000000000000000008152509050611662565b600082905060005b6000821461158057808061156990613118565b915050600a82611579919061318f565b9150611556565b60008167ffffffffffffffff81111561159c5761159b612752565b5b6040519080825280601f01601f1916602001820160405280156115ce5781602001600182028036833780820191505090505b5090505b6000851461165b576001826115e79190612f7a565b9150600a856115f691906131c0565b603061160291906131f1565b60f81b81838151811061161857611617612c54565b5b60200101907effffffffffffffffffffffffffffffffffffffffffffffffffffffffffffff1916908160001a905350600a85611654919061318f565b94506115d2565b8093505050505b919050565b60007f80ac58cd000000000000000000000000000000000000000000000000000000007bffffffffffffffffffffffffffffffffffffffffffffffffffffffff1916827bffffffffffffffffffffffffffffffffffffffffffffffffffffffff1916148061173257507f5b5e139f000000000000000000000000000000000000000000000000000000007bffffffffffffffffffffffffffffffffffffffffffffffffffffffff1916827bffffffffffffffffffffffffffffffffffffffffffffffffffffffff1916145b80611742575061174182611916565b5b9050919050565b60008073ffffffffffffffffffffffffffffffffffffffff166002600084815260200190815260200160002060009054906101000a900473ffffffffffffffffffffffffffffffffffffffff1673ffffffffffffffffffffffffffffffffffffffff1614159050919050565b6117c0838383611980565b505050565b505050565b6117d48383611a92565b6117e16000848484611c6b565b611820576040517f08c379a000000000000000000000000000000000000000000000000000000000815260040161181790613297565b60405180910390fd5b505050565b600080611831836108e1565b90508073ffffffffffffffffffffffffffffffffffffffff168473ffffffffffffffffffffffffffffffffffffffff16148061187357506118728185610d6b565b5b806118b157508373ffffffffffffffffffffffffffffffffffffffff1661189984610565565b73ffffffffffffffffffffffffffffffffffffffff16145b91505092915050565b6118c5848484611df2565b6118d184848484611c6b565b611910576040517f08c379a000000000000000000000000000000000000000000000000000000000815260040161190790613297565b60405180910390fd5b50505050565b60007f01ffc9a7000000000000000000000000000000000000000000000000000000007bffffffffffffffffffffffffffffffffffffffffffffffffffffffff1916827bffffffffffffffffffffffffffffffffffffffffffffffffffffffff1916149050919050565b61198b838383612058565b600073ffffffffffffffffffffffffffffffffffffffff168373ffffffffffffffffffffffffffffffffffffffff16036119cd576119c88161205d565b611a0c565b8173ffffffffffffffffffffffffffffffffffffffff168373ffffffffffffffffffffffffffffffffffffffff1614611a0b57611a0a83826120a6565b5b5b600073ffffffffffffffffffffffffffffffffffffffff168273ffffffffffffffffffffffffffffffffffffffff1603611a4e57611a4981612213565b611a8d565b8273ffffffffffffffffffffffffffffffffffffffff168273ffffffffffffffffffffffffffffffffffffffff1614611a8c57611a8b82826122e4565b5b5b505050565b600073ffffffffffffffffffffffffffffffffffffffff168273ffffffffffffffffffffffffffffffffffffffff1603611b01576040517f08c379a0000000000000000000000000000000000000000000000000000000008152600401611af890613303565b60405180910390fd5b611b0a81611749565b15611b4a576040517f08c379a0000000000000000000000000000000000000000000000000000000008152600401611b419061336f565b60405180910390fd5b611b56600083836117b5565b6001600360008473ffffffffffffffffffffffffffffffffffffffff1673ffffffffffffffffffffffffffffffffffffffff1681526020019081526020016000206000828254611ba691906131f1565b92505081905550816002600083815260200190815260200160002060006101000a81548173ffffffffffffffffffffffffffffffffffffffff021916908373ffffffffffffffffffffffffffffffffffffffff160217905550808273ffffffffffffffffffffffffffffffffffffffff16600073ffffffffffffffffffffffffffffffffffffffff167fddf252ad1be2c89b69c2b068fc378daa952ba7f163c4a11628f55a4df523b3ef60405160405180910390a4611c67600083836117c5565b5050565b6000611c8c8473ffffffffffffffffffffffffffffffffffffffff16612363565b15611de5578373ffffffffffffffffffffffffffffffffffffffff1663150b7a02611cb5610f47565b8786866040518563ffffffff1660e01b8152600401611cd794939291906133e4565b6020604051808303816000875af1925050508015611d1357506040513d601f19601f82011682018060405250810190611d109190613445565b60015b611d95573d8060008114611d43576040519150601f19603f3d011682016040523d82523d6000602084013e611d48565b606091505b506000815103611d8d576040517f08c379a0000000000000000000000000000000000000000000000000000000008152600401611d8490613297565b60405180910390fd5b805181602001fd5b63150b7a0260e01b7bffffffffffffffffffffffffffffffffffffffffffffffffffffffff1916817bffffffffffffffffffffffffffffffffffffffffffffffffffffffff191614915050611dea565b600190505b949350505050565b8273ffffffffffffffffffffffffffffffffffffffff16611e12826108e1565b73ffffffffffffffffffffffffffffffffffffffff1614611e68576040517f08c379a0000000000000000000000000000000000000000000000000000000008152600401611e5f906134e4565b60405180910390fd5b600073ffffffffffffffffffffffffffffffffffffffff168273ffffffffffffffffffffffffffffffffffffffff1603611ed7576040517f08c379a0000000000000000000000000000000000000000000000000000000008152600401611ece90613576565b60405180910390fd5b611ee28383836117b5565b611eed600082610f4f565b6001600360008573ffffffffffffffffffffffffffffffffffffffff1673ffffffffffffffffffffffffffffffffffffffff1681526020019081526020016000206000828254611f3d9190612f7a565b925050819055506001600360008473ffffffffffffffffffffffffffffffffffffffff1673ffffffffffffffffffffffffffffffffffffffff1681526020019081526020016000206000828254611f9491906131f1565b92505081905550816002600083815260200190815260200160002060006101000a81548173ffffffffffffffffffffffffffffffffffffffff021916908373ffffffffffffffffffffffffffffffffffffffff160217905550808273ffffffffffffffffffffffffffffffffffffffff168473ffffffffffffffffffffffffffffffffffffffff167fddf252ad1be2c89b69c2b068fc378daa952ba7f163c4a11628f55a4df523b3ef60405160405180910390a46120538383836117c5565b505050565b505050565b6008805490506009600083815260200190815260200160002081905550600881908060018154018082558091505060019003906000526020600020016000909190919091505550565b600060016120b384610992565b6120bd9190612f7a565b90506000600760008481526020019081526020016000205490508181146121a2576000600660008673ffffffffffffffffffffffffffffffffffffffff1673ffffffffffffffffffffffffffffffffffffffff168152602001908152602001600020600084815260200190815260200160002054905080600660008773ffffffffffffffffffffffffffffffffffffffff1673ffffffffffffffffffffffffffffffffffffffff168152602001908152602001600020600084815260200190815260200160002081905550816007600083815260200190815260200160002081905550505b6007600084815260200190815260200160002060009055600660008573ffffffffffffffffffffffffffffffffffffffff1673ffffffffffffffffffffffffffffffffffffffff16815260200190815260200160002060008381526020019081526020016000206000905550505050565b600060016008805490506122279190612f7a565b905060006009600084815260200190815260200160002054905060006008838154811061225757612256612c54565b5b90600052602060002001549050806008838154811061227957612278612c54565b5b9060005260206000200181905550816009600083815260200190815260200160002081905550600960008581526020019081526020016000206000905560088054806122c8576122c7613596565b5b6001900381819060005260206000200160009055905550505050565b60006122ef83610992565b905081600660008573ffffffffffffffffffffffffffffffffffffffff1673ffffffffffffffffffffffffffffffffffffffff168152602001908152602001600020600083815260200190815260200160002081905550806007600084815260200190815260200160002081905550505050565b6000808273ffffffffffffffffffffffffffffffffffffffff163b119050919050565b6000604051905090565b600080fd5b600080fd5b60007fffffffff0000000000000000000000000000000000000000000000000000000082169050919050565b6123cf8161239a565b81146123da57600080fd5b50565b6000813590506123ec816123c6565b92915050565b60006020828403121561240857612407612390565b5b6000612416848285016123dd565b91505092915050565b60008115159050919050565b6124348161241f565b82525050565b600060208201905061244f600083018461242b565b92915050565b600081519050919050565b600082825260208201905092915050565b60005b8381101561248f578082015181840152602081019050612474565b60008484015250505050565b6000601f19601f8301169050919050565b60006124b782612455565b6124c18185612460565b93506124d1818560208601612471565b6124da8161249b565b840191505092915050565b600060208201905081810360008301526124ff81846124ac565b905092915050565b6000819050919050565b61251a81612507565b811461252557600080fd5b50565b60008135905061253781612511565b92915050565b60006020828403121561255357612552612390565b5b600061256184828501612528565b91505092915050565b600073ffffffffffffffffffffffffffffffffffffffff82169050919050565b60006125958261256a565b9050919050565b6125a58161258a565b82525050565b60006020820190506125c0600083018461259c565b92915050565b6125cf8161258a565b81146125da57600080fd5b50565b6000813590506125ec816125c6565b92915050565b6000806040838503121561260957612608612390565b5b6000612617858286016125dd565b925050602061262885828601612528565b9150509250929050565b61263b81612507565b82525050565b60006020820190506126566000830184612632565b92915050565b60008060006060848603121561267557612674612390565b5b6000612683868287016125dd565b9350506020612694868287016125dd565b92505060406126a586828701612528565b9150509250925092565b6000602082840312156126c5576126c4612390565b5b60006126d3848285016125dd565b91505092915050565b6126e58161241f565b81146126f057600080fd5b50565b600081359050612702816126dc565b92915050565b6000806040838503121561271f5761271e612390565b5b600061272d858286016125dd565b925050602061273e858286016126f3565b9150509250929050565b600080fd5b600080fd5b7f4e487b7100000000000000000000000000000000000000000000000000000000600052604160045260246000fd5b61278a8261249b565b810181811067ffffffffffffffff821117156127a9576127a8612752565b5b80604052505050565b60006127bc612386565b90506127c88282612781565b919050565b600067ffffffffffffffff8211156127e8576127e7612752565b5b6127f18261249b565b9050602081019050919050565b82818337600083830152505050565b600061282061281b846127cd565b6127b2565b90508281526020810184848401111561283c5761283b61274d565b5b6128478482856127fe565b509392505050565b600082601f83011261286457612863612748565b5b813561287484826020860161280d565b91505092915050565b6000806000806080858703121561289757612896612390565b5b60006128a5878288016125dd565b94505060206128b6878288016125dd565b93505060406128c787828801612528565b925050606085013567ffffffffffffffff8111156128e8576128e7612395565b5b6128f48782880161284f565b91505092959194509250565b6000806040838503121561291757612916612390565b5b6000612925858286016125dd565b9250506020612936858286016125dd565b9150509250929050565b7f4e487b7100000000000000000000000000000000000000000000000000000000600052602260045260246000fd5b6000600282049050600182168061298757607f821691505b60208210810361299a57612999612940565b5b50919050565b7f4552433732313a20617070726f76616c20746f2063757272656e74206f776e6560008201527f7200000000000000000000000000000000000000000000000000000000000000602082015250565b60006129fc602183612460565b9150612a07826129a0565b604082019050919050565b60006020820190508181036000830152612a2b816129ef565b9050919050565b7f4552433732313a20617070726f76652063616c6c6572206973206e6f7420746f60008201527f6b656e206f776e6572206e6f7220617070726f76656420666f7220616c6c0000602082015250565b6000612a8e603e83612460565b9150612a9982612a32565b604082019050919050565b60006020820190508181036000830152612abd81612a81565b9050919050565b7f455243373231456e756d657261626c653a206f776e657220696e646578206f7560008201527f74206f6620626f756e6473000000000000000000000000000000000000000000602082015250565b6000612b20602b83612460565b9150612b2b82612ac4565b604082019050919050565b60006020820190508181036000830152612b4f81612b13565b9050919050565b7f42524e3031000000000000000000000000000000000000000000000000000000600082015250565b6000612b8c600583612460565b9150612b9782612b56565b602082019050919050565b60006020820190508181036000830152612bbb81612b7f565b9050919050565b7f455243373231456e756d657261626c653a20676c6f62616c20696e646578206f60008201527f7574206f6620626f756e64730000000000000000000000000000000000000000602082015250565b6000612c1e602c83612460565b9150612c2982612bc2565b604082019050919050565b60006020820190508181036000830152612c4d81612c11565b9050919050565b7f4e487b7100000000000000000000000000000000000000000000000000000000600052603260045260246000fd5b7f4552433732313a20696e76616c696420746f6b656e2049440000000000000000600082015250565b6000612cb9601883612460565b9150612cc482612c83565b602082019050919050565b60006020820190508181036000830152612ce881612cac565b9050919050565b7f4552433732313a2061646472657373207a65726f206973206e6f74206120766160008201527f6c6964206f776e65720000000000000000000000000000000000000000000000602082015250565b6000612d4b602983612460565b9150612d5682612cef565b604082019050919050565b60006020820190508181036000830152612d7a81612d3e565b9050919050565b7f4d4e543031000000000000000000000000000000000000000000000000000000600082015250565b6000612db7600583612460565b9150612dc282612d81565b602082019050919050565b60006020820190508181036000830152612de681612daa565b9050919050565b7f4d4e543032000000000000000000000000000000000000000000000000000000600082015250565b6000612e23600583612460565b9150612e2e82612ded565b602082019050919050565b60006020820190508181036000830152612e5281612e16565b9050919050565b600081905092915050565b6000612e6f82612455565b612e798185612e59565b9350612e89818560208601612471565b80840191505092915050565b6000612ea18285612e64565b9150612ead8284612e64565b91508190509392505050565b7f4f776e61626c653a206e6577206f776e657220697320746865207a65726f206160008201527f6464726573730000000000000000000000000000000000000000000000000000602082015250565b6000612f15602683612460565b9150612f2082612eb9565b604082019050919050565b60006020820190508181036000830152612f4481612f08565b9050919050565b7f4e487b7100000000000000000000000000000000000000000000000000000000600052601160045260246000fd5b6000612f8582612507565b9150612f9083612507565b9250828203905081811115612fa857612fa7612f4b565b5b92915050565b7f4f776e61626c653a2063616c6c6572206973206e6f7420746865206f776e6572600082015250565b6000612fe4602083612460565b9150612fef82612fae565b602082019050919050565b6000602082019050818103600083015261301381612fd7565b9050919050565b7f4552433732313a20617070726f766520746f2063616c6c657200000000000000600082015250565b6000613050601983612460565b915061305b8261301a565b602082019050919050565b6000602082019050818103600083015261307f81613043565b9050919050565b7f4552433732313a2063616c6c6572206973206e6f7420746f6b656e206f776e6560008201527f72206e6f7220617070726f766564000000000000000000000000000000000000602082015250565b60006130e2602e83612460565b91506130ed82613086565b604082019050919050565b60006020820190508181036000830152613111816130d5565b9050919050565b600061312382612507565b91507fffffffffffffffffffffffffffffffffffffffffffffffffffffffffffffffff820361315557613154612f4b565b5b600182019050919050565b7f4e487b7100000000000000000000000000000000000000000000000000000000600052601260045260246000fd5b600061319a82612507565b91506131a583612507565b9250826131b5576131b4613160565b5b828204905092915050565b60006131cb82612507565b91506131d683612507565b9250826131e6576131e5613160565b5b828206905092915050565b60006131fc82612507565b915061320783612507565b925082820190508082111561321f5761321e612f4b565b5b92915050565b7f4552433732313a207472616e7366657220746f206e6f6e20455243373231526560008201527f63656976657220696d706c656d656e7465720000000000000000000000000000602082015250565b6000613281603283612460565b915061328c82613225565b604082019050919050565b600060208201905081810360008301526132b081613274565b9050919050565b7f4552433732313a206d696e7420746f20746865207a65726f2061646472657373600082015250565b60006132ed602083612460565b91506132f8826132b7565b602082019050919050565b6000602082019050818103600083015261331c816132e0565b9050919050565b7f4552433732313a20746f6b656e20616c7265616479206d696e74656400000000600082015250565b6000613359601c83612460565b915061336482613323565b602082019050919050565b600060208201905081810360008301526133888161334c565b9050919050565b600081519050919050565b600082825260208201905092915050565b60006133b68261338f565b6133c0818561339a565b93506133d0818560208601612471565b6133d98161249b565b840191505092915050565b60006080820190506133f9600083018761259c565b613406602083018661259c565b6134136040830185612632565b818103606083015261342581846133ab565b905095945050505050565b60008151905061343f816123c6565b92915050565b60006020828403121561345b5761345a612390565b5b600061346984828501613430565b91505092915050565b7f4552433732313a207472616e736665722066726f6d20696e636f72726563742060008201527f6f776e6572000000000000000000000000000000000000000000000000000000602082015250565b60006134ce602583612460565b91506134d982613472565b604082019050919050565b600060208201905081810360008301526134fd816134c1565b9050919050565b7f4552433732313a207472616e7366657220746f20746865207a65726f2061646460008201527f7265737300000000000000000000000000000000000000000000000000000000602082015250565b6000613560602483612460565b915061356b82613504565b604082019050919050565b6000602082019050818103600083015261358f81613553565b9050919050565b7f4e487b7100000000000000000000000000000000000000000000000000000000600052603160045260246000fdfea2646970667358221220f1c8d935fc80bd5c830ae16a7c02038d2eb43ba91a1b65f3e52764e6148bebc664736f6c63430008110033",
  "immutableReferences": {},
  "source": "// SPDX-License-Identifier: Apache-2.0\npragma solidity ^0.8.16;\n\nimport \"@openzeppelin/contracts/token/ERC721/ERC721.sol\";\nimport \"@openzeppelin/contracts/token/ERC721/extensions/ERC721Enumerable.sol\";\nimport \"@openzeppelin/contracts/access/Ownable.sol\";\nimport \"./interfaces/IERC5192.sol\";\n\ncontract SBT is ERC721, ERC721Enumerable, Ownable {\n    string private baseURI;\n\n    constructor(\n        string memory name_,\n        string memory symbol_,\n        string memory baseURI_\n    ) ERC721(name_, symbol_) {\n        baseURI = baseURI_;\n    }\n\n    function _baseURI() internal view override returns (string memory) {\n        return baseURI;\n    }\n\n    // Mapping from token ID to locked status\n    mapping(uint256 => bool) _locked;\n\n    /// @notice Emitted when the locking status is changed to locked.\n    /// @dev If a token is minted and the status is locked, this event should be emitted.\n    /// @param tokenId The identifier for a token.\n    event Locked(uint256 tokenId);\n\n    /// @notice Emitted when the locking status is changed to unlocked.\n    /// @notice currently SBT Contract does not emit Unlocked event\n    /// @dev If a token is minted and the status is unlocked, this event should be emitted.\n    /// @param tokenId The identifier for a token.\n    event Unlocked(uint256 tokenId);\n\n    /// @notice Returns the locking status of an Soulbound Token\n    /// @dev SBTs assigned to zero address are considered invalid, and queries\n    /// about them do throw.\n    /// @param tokenId The identifier for an SBT.\n    function locked(uint256 tokenId) external view returns (bool) {\n        require(ownerOf(tokenId) != address(0));\n        return _locked[tokenId];\n    }\n\n    function safeMint(address to, uint256 tokenId) public onlyOwner {\n        require(balanceOf(to) == 0, \"MNT01\");\n        require(_locked[tokenId] != true, \"MNT02\");\n\n        _locked[tokenId] = true;\n        emit Locked(tokenId);\n\n        _safeMint(to, tokenId);\n    }\n\n    function burn(uint256 tokenId) public {\n        require(msg.sender == ownerOf(tokenId), \"BRN01\");\n        _burn(tokenId);\n    }\n\n    modifier IsTransferAllowed(uint256 tokenId) {\n        require(!_locked[tokenId]);\n        _;\n    }\n\n    function safeTransferFrom(\n        address from,\n        address to,\n        uint256 tokenId\n    ) public virtual override(IERC721, ERC721) IsTransferAllowed(tokenId) {\n        super.safeTransferFrom(from, to, tokenId);\n    }\n\n    function safeTransferFrom(\n        address from,\n        address to,\n        uint256 tokenId,\n        bytes memory data\n    ) public virtual override(IERC721, ERC721) IsTransferAllowed(tokenId) {\n        super.safeTransferFrom(from, to, tokenId, data);\n    }\n\n    function transferFrom(\n        address from,\n        address to,\n        uint256 tokenId\n    ) public virtual override(IERC721, ERC721) IsTransferAllowed(tokenId) {\n        super.safeTransferFrom(from, to, tokenId);\n    }\n\n    function _beforeTokenTransfer(\n        address from,\n        address to,\n        uint256 tokenId\n    ) internal override(ERC721, ERC721Enumerable) {\n        super._beforeTokenTransfer(from, to, tokenId);\n    }\n\n    function supportsInterface(bytes4 _interfaceId)\n        public\n        view\n        override(ERC721, ERC721Enumerable)\n        returns (bool)\n    {\n        return _interfaceId == type(IERC5192).interfaceId || super.supportsInterface(_interfaceId);\n    }\n}\n\n",
  "sourcePath": "/home/ec2-user/tristan/sbt/contracts/SBT.sol",
  "compiler": {
    "name": "solc",
    "version": "0.8.17+commit.8df45f5f.Emscripten.clang"
  },
  "schemaVersion": "3.4.11",
  "updatedAt": "2023-02-03T09:55:38.788Z",
  "networkType": "ethereum",
  "devdoc": {
    "events": {
      "Locked(uint256)": {
        "details": "If a token is minted and the status is locked, this event should be emitted.",
        "params": {
          "tokenId": "The identifier for a token."
        }
      },
      "Unlocked(uint256)": {
        "details": "If a token is minted and the status is unlocked, this event should be emitted.",
        "params": {
          "tokenId": "The identifier for a token."
        }
      }
    },
    "kind": "dev",
    "methods": {
      "approve(address,uint256)": {
        "details": "See {IERC721-approve}."
      },
      "balanceOf(address)": {
        "details": "See {IERC721-balanceOf}."
      },
      "getApproved(uint256)": {
        "details": "See {IERC721-getApproved}."
      },
      "isApprovedForAll(address,address)": {
        "details": "See {IERC721-isApprovedForAll}."
      },
      "locked(uint256)": {
        "details": "SBTs assigned to zero address are considered invalid, and queries about them do throw.",
        "params": {
          "tokenId": "The identifier for an SBT."
        }
      },
      "name()": {
        "details": "See {IERC721Metadata-name}."
      },
      "owner()": {
        "details": "Returns the address of the current owner."
      },
      "ownerOf(uint256)": {
        "details": "See {IERC721-ownerOf}."
      },
      "renounceOwnership()": {
        "details": "Leaves the contract without owner. It will not be possible to call `onlyOwner` functions anymore. Can only be called by the current owner. NOTE: Renouncing ownership will leave the contract without an owner, thereby removing any functionality that is only available to the owner."
      },
      "setApprovalForAll(address,bool)": {
        "details": "See {IERC721-setApprovalForAll}."
      },
      "symbol()": {
        "details": "See {IERC721Metadata-symbol}."
      },
      "tokenByIndex(uint256)": {
        "details": "See {IERC721Enumerable-tokenByIndex}."
      },
      "tokenOfOwnerByIndex(address,uint256)": {
        "details": "See {IERC721Enumerable-tokenOfOwnerByIndex}."
      },
      "tokenURI(uint256)": {
        "details": "See {IERC721Metadata-tokenURI}."
      },
      "totalSupply()": {
        "details": "See {IERC721Enumerable-totalSupply}."
      },
      "transferOwnership(address)": {
        "details": "Transfers ownership of the contract to a new account (`newOwner`). Can only be called by the current owner."
      }
    },
    "version": 1
  },
  "userdoc": {
    "events": {
      "Locked(uint256)": {
        "notice": "Emitted when the locking status is changed to locked."
      },
      "Unlocked(uint256)": {
        "notice": "Emitted when the locking status is changed to unlocked.currently SBT Contract does not emit Unlocked event"
      }
    },
    "kind": "user",
    "methods": {
      "locked(uint256)": {
        "notice": "Returns the locking status of an Soulbound Token"
      }
    },
    "version": 1
  }
}